:020000040000FA
:100000000C9459000C9481000C9481000C94810094
:100010000C9481000C9481000C9481000C9481005C
:100020000C9481000C9481000C9481000C9481004C
:100030000C9481000C9481000C9481000C9481003C
:100040000C94F6050C9481000C9466060C94400602
:100050000C9481000C9481000C9481000C9481001C
:100060000C9498060C9481000000000025002800E4
:100070002B00040404040404040402020202020229
:10008000030303030303010204081020408001025C
:1000900004081020010204081020000000080002DB
:1000A0000100000304070000000000000000B70783
:1000B0000C0A11241FBECFEFD8E0DEBFCDBF22E077
:1000C000A4E6B1E001C01D92A63EB207E1F711E03F
:1000D000A0E0B1E0E0ECF8E102C005900D92A4369A
:1000E000B107D9F710E0C8E5D0E004C02197FE01C0
:1000F0000E94470AC735D107C9F70E9402080C942D
:10010000530C0C94000090E0FC01E656FF4F249144
:10011000FC01EA57FF4F3491FC01EE58FF4FE49188
:10012000EE23C9F0222339F0233001F1A8F4213065
:1001300019F1223029F1F0E0EE0FFF1FE859FF4FCF
:10014000A591B4918FB7F894EC91611126C03095C8
:100150003E233C938FBF08952730A9F02830C9F083
:10016000243049F7809180008F7D03C0809180000A
:100170008F7780938000DFCF84B58F7784BDDBCF0E
:1001800084B58F7DFBCF8091B0008F778093B000D6
:10019000D2CF8091B0008F7DF9CF3E2BDACF3FB721
:1001A000F89480911F0290912002A0912102B091B9
:1001B000220226B5A89B05C02F3F19F00196A11D6C
:1001C000B11D3FBFBA2FA92F982F8827BC01CD01A1
:1001D000620F711D811D911D42E0660F771F881F00
:1001E000991F4A95D1F708958F929F92AF92BF922F
:1001F000CF92DF92EF92FF924B015C010E94CF0001
:100200006B017C010E94CF006C197D098E099F094A
:10021000683E734081059105A8F321E0821A910898
:10022000A108B10888EEC80E83E0D81EE11CF11CBD
:1002300081149104A104B10429F7FF90EF90DF909D
:10024000CF90BF90AF909F908F900895089508959C
:100250000895AF92BF92CF92DF92EF92FF920F93E9
:100260001F93CF93DF936C017B018B01040F151F4C
:10027000EB015E01AE18BF08C017D10759F06991B4
:10028000D601ED91FC910190F081E02DC601099518
:10029000892B79F7C501DF91CF911F910F91FF90C5
:1002A000EF90DF90CF90BF90AF900895FC01538DF9
:1002B000448D252F30E0842F90E0821B930B541740
:1002C00010F0CF96089501970895FC01918D828DCD
:1002D000981761F0A28DAE0FBF2FB11D5D968C9166
:1002E000928D9F5F9F73928F90E008958FEF9FEFA5
:1002F00008952FB7F8948091230290912402A09141
:100300002502B09126022FBF80932F0290933002D6
:10031000A0933102B093320287E292E00E9465011D
:1003200097FF26C02FB7F894809123029091240262
:10033000A0912502B09126022FBF40912F0250912B
:1003400030026091310270913202841B950BA60B32
:10035000B70B40912B0250912C0260912D027091AD
:100360002E0284179507A607B707B0F28FEF9FEF0D
:100370000895FC01918D828D981731F0828DE80FE0
:10038000F11D858D90E008958FEF9FEF0895FC019A
:10039000918D228D892F90E0805C9F4F821B910967
:1003A0008F739927089587E292E00E94C70121E0A8
:1003B000892B09F420E0822F089580E090E0892BBA
:1003C00029F00E94D30181110C9400000895FC01D2
:1003D000A48DA80FB92FB11DA35ABF4F2C91848DA6
:1003E00090E001968F739927848FA689B7892C9303
:1003F000A089B1898C91837080648C93938D848D56
:10040000981306C00288F389E02D80818F7D808358
:100410000895EF92FF920F931F93CF93DF93EC0118
:1004200081E0888F9B8D8C8D98131AC0E889F9899B
:10043000808185FF15C09FB7F894EE89FF8960839E
:10044000E889F98980818370806480839FBF81E01F
:1004500090E0DF91CF911F910F91FF90EF90089561
:10046000F62E0B8D10E00F5F1F4F0F731127E02E3C
:100470008C8D8E110CC00FB607FCFACFE889F98974
:10048000808185FFF5CFCE010E94E701F1CFEB8D92
:10049000EC0FFD2FF11DE35AFF4FF0829FB7F89448
:1004A0000B8FEA89FB8980818062CFCFCF93DF9366
:1004B000EC01888D8823B9F0AA89BB89E889F9897C
:1004C0008C9185FD03C0808186FD0DC00FB607FCB1
:1004D000F7CF8C9185FFF2CF808185FFEDCFCE01E4
:1004E0000E94E701E9CFDF91CF9108952091A50106
:1004F000260F3327331F21323105ECF42091EE0112
:10050000FC0190E080E0243069F082E00895A09141
:10051000A5012191AC014B575E4FA40FB52FB11D22
:100520002C930196861798F38091A501680F60932C
:10053000A50180E0089581E008951092EE0181E028
:100540008093ED011092C80161E082E10E94830076
:1005500061E083E10E948300E9EBF0E080818E7F1F
:10056000808380818D7F808388E48093B80085E4D8
:100570008093BC000895CF93DF9391E09093840122
:100580008823B9F0C091B800D091BA008091BC0026
:100590008A7B8093BC0060E082E10E94830060E07F
:1005A00083E10E9483000E949D02D093BA00C09311
:1005B000B800DF91CF9108950895E0911D028091D8
:1005C0001C02E81730F4F0E0EC59FE4F808190E017
:1005D00008958FEF9FEF089590911D0280911C0266
:1005E0002FEF3FEF981748F4E92FF0E0EC59FE4F5A
:1005F000208130E09F5F90931D02C9010895809192
:100600001C0290911D02891B990B0895CF92DF92D5
:10061000EF92FF920F931F93CF93DF937C01CB0157
:100620008A012091F401222389F0EB016B01C40EB1
:10063000D51ECC15DD0569F06991D701ED91FC91CE
:100640000190F081E02DC7010995F3CF642F0E943E
:100650007602C801DF91CF911F910F91FF90EF902B
:10066000DF90CF900895CF93DF931F92CDB7DEB781
:1006700069832091F4012223F9F020911A0220329B
:1006800058F021E030E0FC013383228390E080E0E9
:100690000F90DF91CF91089580911B02E82FF0E039
:1006A000EB50FE4F998190838F5F80931B02809364
:1006B0001A0281E090E0ECCF61E0CE0101960E9449
:1006C0007602F7CFCF92DF92EF92FF920F931F93B4
:1006D000CF93DF93FC01C48121E02093F401C09308
:1006E000150210921B0210921A028385682B84EC6B
:1006F00092E00E943303D0911A02D13208F092C0E6
:100700000E94CF006B017C018091EE01811165C0D8
:1007100082E08093EE0181E08093ED018FEF809382
:10072000EC011092EB01D093EA01A5EFB1E0EAEC05
:10073000F1E080E0D81385C01092C9018091C90111
:10074000CC0FC82BC093C9018091C801813009F03A
:100750007CC01092C8010E94CF006B017C01809187
:10076000C9018093BB008091F0019091F101A091AB
:10077000F201B091F301892B8A2B8B2B99F00E9407
:10078000CF000091F0011091F1012091F201309120
:10079000F3016C197D098E099F09061717072807B1
:1007A0003907E0F18091BC0083FDD9CF85EC8093BF
:1007B000BC000E94CF006B017C018091EE01823071
:1007C00009F445C08091EC018F3F61F18091EC010B
:1007D000803241F18091EC0125C08091F00190912F
:1007E000F101A091F201B091F301892B8A2B8B2B9F
:1007F00009F48ACF0E94CF000091F0011091F1011D
:100800002091F2013091F3016C197D098E099F0945
:10081000061717072807390708F076CF8091EF01F0
:100820000E94BB0210921B0210921A021092F40155
:10083000DF91CF911F910F91FF90EF90DF90CF90BC
:1008400008959D9191938F5F75CF85EEB0CF809184
:10085000F0019091F101A091F201B091F301892B87
:100860008A2B8B2B09F4A9CF0E94CF000091F001B5
:100870001091F1012091F2013091F3016C197D0981
:100880008E099F09061717072807390708F095CF23
:10089000C5CF90E080E008950F931F93CF938C0114
:1008A000C62F0E9462036C2F6460C8010E9462031D
:1008B0006C2F6B7FC8010E94620383EC90E001976C
:1008C000F1F7CF911F910F9108950F931F93CF933D
:1008D000DF938C01D62FC42F607F642B0E944C04C1
:1008E00080E1D89FB00111246C2BC801DF91CF911A
:1008F0001F910F910C944C0440E061E086ED92E072
:100900000E9465048BE39FE10197F1F70895CF936F
:10091000DF93CDB7DEB728970FB6F894DEBF0FBED2
:10092000CDBF98E0EEE0F1E0DE01119601900D926E
:100930009A95E1F79091DE02961708F46FEF262F53
:1009400030E0220F331F41E050E04C0F5D1F240FB9
:10095000351FF9016081680F606840E086ED92E024
:1009600028960FB6F894DEBF0FBECDBFDF91CF91B2
:100970000C94650441E00E94650481E090E00895D4
:100980000F931F93CF93DF938C01EB01FC018081C8
:1009900091810097E1F06881798161157105A9F075
:1009A000428153812C813D814217530770F00E9490
:1009B0004C0C8C819D81F801958384831D821C825F
:1009C000DF91CF911F910F9108950E94E90A8881CC
:1009D0009981F801918380838A819B8193838283AB
:1009E0008C819D8195838483198218821B821A824F
:1009F000E5CFFC0180819181009711F00C94E90A08
:100A000008950F931F93CF93DF93EC018881998111
:100A1000009759F02A813B812617370730F081E093
:100A2000DF91CF911F910F9108958B016F5F7F4FE1
:100A30000E94720B009759F0998388831B830A8365
:100A40002C813D81232B59F7FC011082E8CF80E0F7
:100A5000E7CFEF92FF920F931F93CF93DF93EC01B9
:100A60007B018A01BA010E94010528813981811127
:100A700014C02115310519F0C9010E94E90A198233
:100A800018821D821C821B821A82CE01DF91CF91B7
:100A90001F910F91FF90EF9008951D830C83B70174
:100AA000C9010E944C0CF1CFFC011182108213820B
:100AB00012821582148250E040E063E671E00C94EB
:100AC0002905AF92BF92CF92DF92EF92FF920F93E0
:100AD0001F93CF93DF93EC016B015A017901241727
:100AE000350720F48B2D5901E42EF82ECE010E94FB
:100AF0005405D60114960D911C91A016B10628F547
:100B0000E016F10608F48701D601ED91FC911197EA
:100B1000E00FF11FF08010826D917C916A0D7B1DBA
:100B200061157105F1F0FB0101900020E9F73197A3
:100B3000AF01461B570BCE010E942905F6018081AB
:100B40009181080F191FD801FC92CE01DF91CF913E
:100B50001F910F91FF90EF90DF90CF90BF90AF90DB
:100B6000089588819981009711F00E94E90A1982FD
:100B700018821D821C821B821A82E0CF85ED809331
:100B8000BC008091F0019091F101A091F201B0912F
:100B9000F3010796A11DB11D23E0B695A795979582
:100BA00087952A95D1F72091BC0024FD03C01092AF
:100BB000EE0108954091F0015091F1016091F20130
:100BC0007091F301452B462B472B69F30097A10544
:100BD000B10541F02AE22A95F1F700C00197A10979
:100BE000B109E1CF8091EF010C94BB021F920F92EB
:100BF0000FB60F9211242F933F938F939F93AF9330
:100C0000BF938091230290912402A0912502B0917C
:100C1000260230911E0223E0230F2D3758F501964E
:100C2000A11DB11D20931E028093230290932402E4
:100C3000A0932502B093260280911F02909120027A
:100C4000A0912102B09122020196A11DB11D8093B5
:100C50001F0290932002A0932102B0932202BF9121
:100C6000AF919F918F913F912F910F900FBE0F9059
:100C70001F90189526E8230F0296A11DB11DD2CF13
:100C80001F920F920FB60F9211242F933F934F9301
:100C90005F936F937F938F939F93AF93BF93EF93E4
:100CA000FF9387E292E00E94E701FF91EF91BF91ED
:100CB000AF919F918F917F916F915F914F913F91F4
:100CC0002F910F900FBE0F901F9018951F920F92AB
:100CD0000FB60F9211242F938F939F93EF93FF934F
:100CE000E0913702F09138028081E0913D02F0916D
:100CF0003E0282FD1BC09081809140028F5F8F7306
:100D000020914102821741F0E0914002F0E0E95D5C
:100D1000FD4F958F80934002FF91EF919F918F91AE
:100D20002F910F900FBE0F901F9018958081F4CFD8
:100D30001F920F920FB60F9211242F933F934F9350
:100D40005F936F937F938F939F93AF93BF93EF9333
:100D5000FF938091B900887F803609F44AC0F0F58E
:100D6000883209F4A7C018F5803109F49BC0B8F4A3
:100D7000882309F4F9C0883009F494C0FF91EF91F9
:100D8000BF91AF919F918F917F916F915F914F91A3
:100D90003F912F910F900FBE0F901F9018958831A3
:100DA00009F488C0803251F78093EC0114C080347C
:100DB00009F49DC040F48033B9F38833F9F6809389
:100DC000EC0185ECB0C0803509F485C0883509F4A4
:100DD00096C0883499F60E94BE05D0CF883909F4B0
:100DE0008CC038F5883729F050F4883611F08037F8
:100DF00029F683E08093EE011092C70157C088382E
:100E000009F47BC0803919F0803809F0B7CF8091A0
:100E1000C701803208F071C0E091C70181E08E0FF8
:100E20008093C7018091BB00F0E0E955FE4F8083BD
:100E30003DC0803B39F0E0F4803A09F479C0883A4B
:100E400009F09CCF84E08093EE011092A6011092ED
:100E5000A501E0911802F091190209958091A50170
:100E600081110FC081E08093A5011092850109C016
:100E7000803C09F4A6CF883C09F4A3CF883B09F055
:100E80007DCFE091A60181E08E0F8093A601F0E076
:100E9000EB57FE4F80818093BB009091A60180911B
:100EA000A50129C08091C9018093BB0085EC809386
:100EB000BC0064CF9091EB018091EA01981758F53E
:100EC000E091EB0181E08E0F8093EB01F0E0E653BF
:100ED000FE4F8081E9CFE091EB0181E08E0F80939E
:100EE000EB018091BB00F0E0E653FE4F80839091D0
:100EF000EB018091EA019817C8F285E8D8CFE0911C
:100F0000EB0181E08E0F8093EB018091BB00F0E05C
:100F1000E653FE4F80838091ED0181115CCF81E02B
:100F20008093C80184EA8093BC001092EE0126CF22
:100F300085EC8093BC001092EE018091C701803255
:100F400030F4E091C701F0E0E955FE4F1082609166
:100F5000C70170E0E0911602F091170287EA91E074
:100F600009951092C7010ACF1092EC0134CFE7E245
:100F7000F2E01382128288EE93E0A0E0B0E0848376
:100F80009583A683B7832AE131E03183208325EC62
:100F900030E03587248724EC30E03787268720EC43
:100FA00030E0318B208B21EC30E0338B228B22EC34
:100FB00030E0358B248B26EC30E0378B268B118E7E
:100FC000128E138E148EE4ECF2E01382128284836C
:100FD0009583A683B7838CE291E091838083E6EDCD
:100FE000F2E0138212828EE391E09183808387E2A4
:100FF000848380E1818782E08287138680ED92E09E
:101000000C945405CF93DF93CDB7DEB768970FB636
:10101000F894DEBF0FBECDBF789484B5826084BDE6
:1010200084B5816084BD85B5826085BD85B58160EC
:1010300085BD80916E00816080936E00109281006A
:101040008091810082608093810080918100816025
:1010500080938100809180008160809380008091E6
:10106000B10084608093B1008091B0008160809372
:10107000B00080917A00846080937A0080917A0039
:10108000826080937A0080917A00816080937A00F8
:1010900080917A00806880937A001092C100E0917C
:1010A0003702F091380282E08083E0913302F091C0
:1010B00034021082E0913502F09136028FEC808389
:1010C00010923F02E0913B02F0913C0286E0808367
:1010D000E0913902F0913A02808180618083E09151
:1010E0003902F0913A02808188608083E091390270
:1010F000F0913A02808180688083E0913902F0911A
:101100003A0280818F7D808310921D0210921C0212
:1011100010921B0210921A020E949D0286E291E038
:10112000909319028093180287E291E0909317023E
:10113000809316021092DB028091E002823018F058
:1011400098E09093DB028093DE0262E370E080E03F
:1011500090E00E94F4006091E10286ED92E00E942E
:10116000620368EE73E080E090E00E94F40060E3C8
:1011700086ED92E00E944C040BE416E4C80101974E
:10118000F1F760E386ED92E00E944C04C8010197FC
:10119000F1F760E386ED92E00E944C0483E592E073
:1011A0000197F1F760E286ED92E00E944C046091B5
:1011B000DB02606240E086ED92E00E94650484E01C
:1011C0008093DC0240E06CE086ED92E00E946504D2
:1011D0000E947C0482E08093DD0240E066E086EDC0
:1011E00092E00E94650440E062E086ED92E00E9499
:1011F00065048BE39FE10197F1F788E08093E102BA
:1012000060E086ED92E00E9462030E947C0480E030
:10121000E82E80E0F82E87E292E00E94C7011816BF
:1012200019060CF0E5C087E292E00E9465018A97FA
:1012300009F0DEC0CE0101960E9454050E9479019A
:1012400097FD1EC08A309105D9F08F8318860D81D5
:101250001E810F5F1F4FB801CE0101960E9401054C
:10126000882361F329813A818D819E81BE01695F66
:101270007F4F820F931F0E944C0C1E830D83DECF85
:10128000BE016F5F7F4F80ED92E00E94C004CE01EF
:1012900001960E94F9041C8A1B8A1E8A1D8A188ED8
:1012A0001F8A6091D0027091D1026115710541F0E1
:1012B0004091D4025091D502CE0143960E94290557
:1012C000CE010D960E945405CE0107960E9454054A
:1012D0008F89988D892BE1F10B891C896AE270E076
:1012E000C8010E94380C009799F19C01201B310B1A
:1012F00089010F3F100761F1980150E040E0BE0105
:101300006D5E7F4FCE0101960E946105BE016F5F49
:101310007F4FCE010D960E94C004CE0101960E941F
:10132000F9042F89388DA8014F5F5F4FBE016D5EB4
:101330007F4FCE0101960E946105BE016F5F7F4F16
:10134000CE0107960E94C004CE0101960E94F904C6
:101350000E947C0460E080E00E94870449895A89E9
:101360006D857E8586ED92E00E94290161E080E036
:101370000E9487040B851C850115110509F444C0E2
:1013800066E471E08F8198850E94430C892BE1F51A
:101390004FE050E064E571E086ED92E00E942901A3
:1013A00040E060E486ED92E00E94650400E011E018
:1013B000F80161918F0186ED92E00E94BA04F1E09C
:1013C00008301F07A9F761E08FE00E94870460E002
:1013D00086ED92E00E94BA04CE0107960E94F904BD
:1013E000CE010D960E94F904CE0143960E94F904A5
:1013F000E114F10409F40FCF0E94D301882309F40A
:101400000ACF0E94000007CF6F817885A80186ED82
:1014100092E00E942901E0CF80ED92E00C94F90463
:101420002F923F924F925F926F927F928F929F92F4
:10143000AF92BF92CF92DF92EF92FF920F931F93E2
:10144000CF93DF93CDB7DEB7CA1BDB0B0FB6F89493
:10145000DEBF0FBECDBF09942A88398848885F84D3
:101460006E847D848C849B84AA84B984C884DF8044
:10147000EE80FD800C811B81AA81B981CE0FD11D28
:101480000FB6F894DEBF0FBECDBFED010895EE0F8D
:10149000FF1F0590F491E02D09940F931F93CF93B4
:1014A000DF938230910510F482E090E0E091E40255
:1014B000F091E50230E020E0B0E0A0E0309799F450
:1014C0002115310509F44AC0281B390B2430310598
:1014D000D8F58A819B816115710589F1FB019383A0
:1014E0008283FE0111C0408151810281138148171E
:1014F0005907E0F04817590799F4109761F01296D0
:101500000C93129713961C933296CF01DF91CF91D3
:101510001F910F9108950093E4021093E502F4CF18
:101520002115310551F04217530738F0A901DB01AD
:101530009A01BD01DF01F801C1CFEF01F9CF90930E
:10154000E5028093E402CDCFFE01E20FF31F819309
:1015500091932250310939832883D7CF2091E20219
:101560003091E302232B41F420910A0130910B01C9
:101570003093E3022093E2022091080130910901A7
:101580002115310541F42DB73EB740910C01509122
:101590000D01241B350BE091E202F091E302E2170A
:1015A000F307A0F42E1B3F0B2817390778F0AC0186
:1015B0004E5F5F4F2417350748F04E0F5F1F509363
:1015C000E3024093E202819391939FCFF0E0E0E049
:1015D0009CCFCF93DF930097E9F0FC013297138201
:1015E0001282A091E402B091E502ED0130E020E02A
:1015F0001097A1F420813181820F931F2091E20284
:101600003091E3022817390709F061C0F093E30233
:10161000E093E202DF91CF910895EA01CE17DF0750
:10162000E8F54A815B819E0141155105B1F7E90159
:10163000FB83EA8349915991C40FD51FEC17FD072D
:1016400061F4808191810296840F951FE90199834D
:101650008883828193819B838A83F0E0E0E0129605
:101660008D919C9113970097B9F52D913C9111970D
:10167000CD010296820F931F2091E2023091E30286
:101680002817390739F6309751F51092E502109274
:10169000E402B093E302A093E202BCCFD383C283FF
:1016A00040815181840F951FC817D90761F44E5F9F
:1016B0005F4F88819981480F591F518340838A81E8
:1016C0009B81938382832115310509F0B0CFF0937C
:1016D000E502E093E4029ECFFD01DC01C0CF13825E
:1016E0001282D7CFB0E0A0E0E8E7FBE00C94120A4A
:1016F0008C01009751F4CB010E944D0A8C01C80166
:10170000CDB7DEB7E0E10C942E0AFC01E60FF71F1F
:101710009C0122503109E217F30708F49DC0D9015A
:10172000CD91DC911197C617D70798F0C530D10538
:1017300030F3CE0104978617970708F3C61BD70B23
:101740002297C193D1936D937C93CF010E94E90AB4
:10175000D6CF5B01AC1ABD0A4C018C0E9D1EA09128
:10176000E402B091E502512C412CF12CE12C1097B0
:1017700031F58091E2029091E3028815990509F014
:101780005CC04616570608F058C080910801909139
:101790000901009741F48DB79EB740910C0150911B
:1017A0000D01841B950BE817F90708F055C0F0935D
:1017B000E302E093E202F90171836083A0CF8D918F
:1017C0009C91119712966C90129713967C90139798
:1017D000A815B90559F56C0142E0C40ED11CCA1414
:1017E000DB0420F1AC014A195B09DA011296159766
:1017F00080F06282738251834083D9016D937C9320
:10180000E114F10471F0D7011396FC93EE93129753
:1018100076CF22968C0F9D1FF90191838083F3016F
:10182000EFCFF093E502E093E40269CF4816590642
:1018300008F42C017D01D3019ACFCB010E944D0AFF
:101840007C01009749F0AE01B8010E942F0CC8013D
:101850000E94E90A870153CF10E000E050CFFB015E
:10186000DC0102C001900D9241505040D8F708951C
:10187000FC018191861721F08823D9F799270895D3
:101880003197CF010895FB01DC018D910190801902
:101890000110D9F3990B0895FB01DC0101900D9221
:1018A0000020E1F7089510E0C8E5D0E004C0FE0193
:1018B0000E94470A2196C935D107C9F7F894FFCF8E
:1018C00000110A040A1100000000E6028000000076
:1018D00040001400540000000000090229015601D4
:1018E0005602C7016501B901000000003303060379
:1018F0004904DC02FF02EC02DD0200000000BA0431
:101900002901490428014D617274696E2047617292
:10191000726978004D617274696E204761727269F4
:0419200078202B0000
:107800000C94343C0C94513C0C94513C0C94513CE1
:107810000C94513C0C94513C0C94513C0C94513CB4
:107820000C94513C0C94513C0C94513C0C94513CA4
:107830000C94513C0C94513C0C94513C0C94513C94
:107840000C94513C0C94513C0C94513C0C94513C84
:107850000C94513C0C94513C0C94513C0C94513C74
:107860000C94513C0C94513C11241FBECFEFD8E036
:10787000DEBFCDBF11E0A0E0B1E0ECE9FFE702C060
:1078800005900D92A230B107D9F712E0A2E0B1E065
:1078900001C01D92AD30B107E1F70E942D3D0C945F
:1078A000CC3F0C94003C982F959595959595959582
:1078B000905D8F708A307CF0282F295A8091C0000B
:1078C00085FFFCCF9093C6008091C00085FFFCCF60
:1078D0002093C6000895282F205DF0CF982F809127
:1078E000C00085FFFCCF9093C6000895EF92FF92F1
:1078F0000F931F93EE24FF2487018091C00087FD22
:1079000017C00894E11CF11C011D111D81E4E8164B
:1079100082E4F8068FE0080780E0180770F3E09132
:107920000401F091050109958091C00087FFE9CF1E
:107930008091C6001F910F91FF90EF9008950E94D3
:10794000763C982F8091C00085FFFCCF9093C600B5
:1079500091362CF490330CF09053892F089597555D
:10796000892F08951F930E949F3C182F0E949F3CCF
:107970001295107F810F1F9108951F93182F882350
:1079800021F00E94763C1150E1F71F9108951F935A
:10799000182F0E94763C803249F0809103018F5F5E
:1079A000809303018530C1F01F9108958091C0003C
:1079B00085FFFCCF84E18093C6008091C00085FFE5
:1079C000FCCF1093C6008091C00085FFFCCF80E102
:1079D0008093C6001F910895E0910401F091050184
:1079E00009951F9108950E94763C803241F0809164
:1079F00003018F5F80930301853081F008958091AA
:107A0000C00085FFFCCF84E18093C6008091C00058
:107A100085FFFCCF80E18093C6000895E0910401CA
:107A2000F09105010995089540E951E08823A1F0FE
:107A30002D9A28EE33E0FA013197F1F721503040CA
:107A4000D1F72D9828EE33E0FA013197F1F7215064
:107A50003040D1F7815061F708953F924F925F9285
:107A60006F927F928F929F92AF92BF92CF92DF924E
:107A7000EF92FF920F931F93CF93DF93000080E16B
:107A80008093C4001092C50088E18093C10086E015
:107A90008093C2005098589A259A81E00E94143D24
:107AA00024E1F22E9EE1E92E85E9D82E0FE0C02ECA
:107AB00010E1B12EAA24A394B1E49B2EA6E58A2E50
:107AC000F2E57F2EE0E26E2E79E4572E63E5462E36
:107AD00050E5352E0E94763C8033B1F18133B9F107
:107AE000803409F46FC0813409F476C0823409F41B
:107AF00085C0853409F488C0803531F1823521F1A3
:107B0000813511F1853509F485C0863509F48DC0BC
:107B1000843609F496C0843709F403C1853709F423
:107B200072C1863709F466C0809103018F5F80932C
:107B30000301853079F6E0910401F0910501099582
:107B40000E94763C803351F60E94F33CC3CF0E94E2
:107B5000763C803249F78091C00085FFFCCFF092DF
:107B6000C6008091C00085FFFCCF9092C600809136
:107B7000C00085FFFCCF8092C6008091C00085FFC9
:107B8000FCCF7092C6008091C00085FFFCCF609250
:107B9000C6008091C00085FFFCCF5092C600809146
:107BA000C00085FFFCCF4092C6008091C00085FFD9
:107BB000FCCF3092C6008091C00085FFFCCFB09210
:107BC000C60088CF0E94763C863808F4BDCF0E945C
:107BD000763C0E94F33C7ECF0E94763C803809F4CC
:107BE0009CC0813809F40BC1823809F43CC1883942
:107BF00009F48FC080E00E94C73C6CCF84E10E94F2
:107C0000BD3C0E94F33C66CF85E00E94BD3C0E94D3
:107C1000F33C60CF0E94763C809306010E94763C44
:107C2000809307010E94F33C55CF0E94763C80333D
:107C300009F41DC183E00E94BD3C80E00E94C73C66
:107C400049CF0E94763C809309020E94763C809343
:107C5000080280910C028E7F80930C020E94763C79
:107C6000853409F415C18091080290910902892B8D
:107C700089F000E010E00E94763CF801E85FFE4FDA
:107C800080830F5F1F4F80910802909109020817AF
:107C9000190788F30E94763C803209F045CF809125
:107CA0000C0280FF01C16091060170910701660F0F
:107CB000771F7093070160930601A0910802B091AD
:107CC00009021097C9F0E8E0F1E09B01AD014E0F09
:107CD0005F1FF999FECF32BD21BD819180BDFA9A17
:107CE000F99A2F5F3F4FE417F50799F76A0F7B1F4B
:107CF00070930701609306018091C00085FFFCCF5F
:107D0000F092C6008091C00085FFFCCFB092C60003
:107D1000E1CE83E00E94C73CDDCE82E00E94C73CFA
:107D2000D9CE0E94763C809309020E94763C8093D3
:107D300008028091060190910701880F991F909386
:107D40000701809306010E94763C853409F4A6C0A1
:107D500080910C028E7F80930C020E94763C8032D0
:107D600009F0B8CE8091C00085FFFCCFF092C6002C
:107D7000609108027091090261157105B9F140E046
:107D800050E080910C02A82FA170B82FB27011C0E2
:107D9000BB2309F45CC0E0910601F0910701319624
:107DA000F0930701E09306014F5F5F4F46175707B7
:107DB000E8F4AA2369F3F999FECF209106013091E6
:107DC000070132BD21BDF89A90B58091C00085FFB2
:107DD000FCCF9093C6002F5F3F4F30930701209355
:107DE00006014F5F5F4F4617570718F38091C00099
:107DF00085FDE5CE8091C00085FFF8CFE0CE81E023
:107E00000E94C73C67CE0E94763C803209F08CCE3F
:107E10008091C00085FFFCCFF092C6008091C00029
:107E200085FFFCCFE092C6008091C00085FFFCCFAB
:107E3000D092C6008091C00085FFFCCFC092C600E2
:107E40008091C00085FFFCCFB092C60043CEE09188
:107E50000601F091070194918091C00085FFFCCF4D
:107E60009093C6009CCF80E10E94C73C33CE0E9415
:107E7000763C0E94763C182F0E94763C112309F430
:107E800083C0113009F484C08FE00E94C73C22CE29
:107E900080910C02816080930C02E5CE80910C02EF
:107EA000816080930C0259CF809107018823880F4D
:107EB000880B8A2180930B02809106019091070123
:107EC000880F991F90930701809306018091080203
:107ED00080FF09C080910802909109020196909359
:107EE000090280930802F894F999FECF1127E091D6
:107EF0000601F0910701C8E0D1E08091080290915D
:107F00000902103091F40091570001700130D9F34B
:107F100003E000935700E89500915700017001308D
:107F2000D9F301E100935700E89509901990009169
:107F3000570001700130D9F301E000935700E89534
:107F40001395103498F011270091570001700130FB
:107F5000D9F305E000935700E895009157000170B0
:107F60000130D9F301E100935700E895329602976A
:107F700009F0C7CF103011F00296E5CF112480919F
:107F8000C00085FFB9CEBCCE8EE10E94C73CA2CD19
:0E7F900085E90E94C73C9ECDF894FFCF80008B
:00000001FF
