:020000040000FA
:100000000C9459000C9481000C9481000C94810094
:100010000C9481000C9481000C9481000C9481005C
:100020000C9481000C9481000C9481000C9481004C
:100030000C9481000C9481000C9481000C9481003C
:100040000C9411060C9481000C9481060C945B06B0
:100050000C9481000C9481000C9481000C9481001C
:100060000C94B3060C9481000000000025002800C9
:100070002B00040404040404040402020202020229
:10008000030303030303010204081020408001025C
:1000900004081020010204081020000000080002DB
:1000A0000100000304070000000000000000D20768
:1000B0002F0A11241FBECFEFD8E0DEBFCDBF22E054
:1000C000A8E7B1E001C01D92AA3FB207E1F711E035
:1000D000A0E0B1E0E6E0F9E102C005900D92A8379A
:1000E000B107D9F710E0C8E5D0E004C02197FE01C0
:1000F0000E946A0AC735D107C9F70E941D080C94EF
:10010000760C0C94000090E0FC01E656FF4F249121
:10011000FC01EA57FF4F3491FC01EE58FF4FE49188
:10012000EE23C9F0222339F0233001F1A8F4213065
:1001300019F1223029F1F0E0EE0FFF1FE859FF4FCF
:10014000A591B4918FB7F894EC91611126C03095C8
:100150003E233C938FBF08952730A9F02830C9F083
:10016000243049F7809180008F7D03C0809180000A
:100170008F7780938000DFCF84B58F7784BDDBCF0E
:1001800084B58F7DFBCF8091B0008F778093B000D6
:10019000D2CF8091B0008F7DF9CF3E2BDACF3FB721
:1001A000F8948091330290913402A0913502B0917D
:1001B000360226B5A89B05C02F3F19F00196A11D58
:1001C000B11D3FBFBA2FA92F982F8827BC01CD01A1
:1001D000620F711D811D911D42E0660F771F881F00
:1001E000991F4A95D1F708958F929F92AF92BF922F
:1001F000CF92DF92EF92FF924B015C010E94CF0001
:100200006B017C010E94CF006C197D098E099F094A
:10021000683E734081059105A8F321E0821A910898
:10022000A108B10888EEC80E83E0D81EE11CF11CBD
:1002300081149104A104B10429F7FF90EF90DF909D
:10024000CF90BF90AF909F908F900895089508959C
:100250000895AF92BF92CF92DF92EF92FF920F93E9
:100260001F93CF93DF936C017B018B01040F151F4C
:10027000EB015E01AE18BF08C017D10759F06991B4
:10028000D601ED91FC910190F081E02DC601099518
:10029000892B79F7C501DF91CF911F910F91FF90C5
:1002A000EF90DF90CF90BF90AF900895FC01538DF9
:1002B000448D252F30E0842F90E0821B930B541740
:1002C00010F0CF96089501970895FC01918D828DCD
:1002D000981761F0A28DAE0FBF2FB11D5D968C9166
:1002E000928D9F5F9F73928F90E008958FEF9FEFA5
:1002F00008952FB7F8948091370290913802A09119
:100300003902B0913A022FBF809343029093440286
:10031000A0934502B09346028BE392E00E946501F0
:1003200097FF26C02FB7F89480913702909138023A
:10033000A0913902B0913A022FBF409143025091EF
:1003400044026091450270914602841B950BA60BF6
:10035000B70B40913F025091400260914102709171
:10036000420284179507A607B707B0F28FEF9FEFF9
:100370000895FC01918D828D981731F0828DE80FE0
:10038000F11D858D90E008958FEF9FEF0895FC019A
:10039000918D228D892F90E0805C9F4F821B910967
:1003A0008F73992708958BE392E00E94C70121E0A3
:1003B000892B09F420E0822F089580E090E0892BBA
:1003C00029F00E94D30181110C9400000895FC01D2
:1003D000A48DA80FB92FB11DA35ABF4F2C91848DA6
:1003E00090E001968F739927848FA689B7892C9303
:1003F000A089B1898C91837080648C93938D848D56
:10040000981306C00288F389E02D80818F7D808358
:100410000895EF92FF920F931F93CF93DF93EC0118
:1004200081E0888F9B8D8C8D98131AC0E889F9899B
:10043000808185FF15C09FB7F894EE89FF8960839E
:10044000E889F98980818370806480839FBF81E01F
:1004500090E0DF91CF911F910F91FF90EF90089561
:10046000F62E0B8D10E00F5F1F4F0F731127E02E3C
:100470008C8D8E110CC00FB607FCFACFE889F98974
:10048000808185FFF5CFCE010E94E701F1CFEB8D92
:10049000EC0FFD2FF11DE35AFF4FF0829FB7F89448
:1004A0000B8FEA89FB8980818062CFCFCF93DF9366
:1004B000EC01888D8823B9F0AA89BB89E889F9897C
:1004C0008C9185FD03C0808186FD0DC00FB607FCB1
:1004D000F7CF8C9185FFF2CF808185FFEDCFCE01E4
:1004E0000E94E701E9CFDF91CF9108952091B901F2
:1004F000260F3327331F21323105ECF420910202FD
:10050000FC0190E080E0243069F082E00895A09141
:10051000B9012191AC0147565E4FA40FB52FB11D13
:100520002C930196861798F38091B901680F609318
:10053000B90180E0089581E008951092020281E0FF
:10054000809301021092DC0161E082E10E9483004D
:1005500061E083E10E948300E9EBF0E080818E7F1F
:10056000808380818D7F808388E48093B80085E4D8
:100570008093BC000895CF93DF9391E0909398010E
:100580008823B9F0C091B800D091BA008091BC0026
:100590008A7B8093BC0060E082E10E94830060E07F
:1005A00083E10E9483000E949D02D093BA00C09311
:1005B000B800DF91CF9108950895E09131028091C4
:1005C0003002E81730F4F0E0E858FE4F808190E008
:1005D00008958FEF9FEF089590913102809130023E
:1005E0002FEF3FEF981748F4E92FF0E0E858FE4F5F
:1005F000208130E09F5F90933102C901089580917E
:10060000300290913102891B990B0895CF92DF92AD
:10061000EF92FF920F931F93CF93DF937C01CB0157
:100620008A0120910802222389F0EB016B01C40E9C
:10063000D51ECC15DD0569F06991D701ED91FC91CE
:100640000190F081E02DC7010995F3CF642F0E943E
:100650007602C801DF91CF911F910F91FF90EF902B
:10066000DF90CF900895CF93DF931F92CDB7DEB781
:100670006983209108022223F9F020912E02203272
:1006800058F021E030E0FC013383228390E080E0E9
:100690000F90DF91CF91089580912F02E82FF0E025
:1006A000E75FFD4F998190838F5F80932F02809346
:1006B0002E0281E090E0ECCF61E0CE0101960E9435
:1006C0007602F7CFCF92DF92EF92FF920F931F93B4
:1006D000CF93DF93FC01C48121E020930802C093F3
:1006E000290210922F0210922E028385682B88ED2A
:1006F00092E00E943303D0912E02D13208F092C0D2
:100700000E94CF006B017C0180910202811165C0C3
:1007100082E08093020281E0809301028FEF809358
:1007200000021092FF01D093FE01A9E0B2E0EEEDCD
:10073000F1E080E0D81385C01092DD018091DD01E9
:10074000CC0FC82BC093DD018091DC01813009F012
:100750007CC01092DC010E94CF006B017C01809173
:10076000DD018093BB008091040290910502A0916D
:100770000602B0910702892B8A2B8B2B99F00E94DD
:10078000CF000091040210910502209106023091E1
:1007900007026C197D098E099F090617170728079C
:1007A0003907E0F18091BC0083FDD9CF85EC8093BF
:1007B000BC000E94CF006B017C018091020282305C
:1007C00009F445C0809100028F3F61F180910002E1
:1007D000803241F18091000225C080910402909105
:1007E0000502A0910602B0910702892B8A2B8B2B60
:1007F00009F48ACF0E94CF000091040210910502F3
:1008000020910602309107026C197D098E099F091B
:10081000061717072807390708F076CF80910302DB
:100820000E94BB0210922F0210922E021092080218
:10083000DF91CF911F910F91FF90EF90DF90CF90BC
:1008400008959D9191938F5F75CF85EEB0CF809184
:10085000040290910502A0910602B0910702892B33
:100860008A2B8B2B09F4A9CF0E94CF0000910402A0
:100870001091050220910602309107026C197D0942
:100880008E099F09061717072807390708F095CF23
:10089000C5CF90E080E008950F931F93CF938C0114
:1008A000C62F0E9462036C2F6460C8010E9462031D
:1008B0006C2F6B7FC8010E94620383EC90E001976C
:1008C000F1F7CF911F910F9108950F931F93CF933D
:1008D000DF938C01D62FC42F607F642B0E944C04C1
:1008E00080E1D89FB00111246C2BC801DF91CF911A
:1008F0001F910F910C944C0440E061E08AEE92E06D
:100900000E9465048BE39FE10197F1F70895CF936F
:10091000DF93CDB7DEB728970FB6F894DEBF0FBED2
:10092000CDBF98E0E6E1F1E0DE01119601900D9275
:100930009A95E1F79091F202961708F46FEF262F3F
:1009400030E0220F331F41E050E04C0F5D1F240FB9
:10095000351FF9016081680F606840E08AEE92E01F
:1009600028960FB6F894DEBF0FBECDBFDF91CF91B2
:100970000C94650441E00E94650481E090E00895D4
:100980000F931F93CF93DF938C0140E060E48AEED6
:1009900092E00E946504E801085F1F4F69918AEEAA
:1009A00092E00E94BA040C171D07C1F7DF91CF91A6
:1009B0001F910F9108950F931F93CF93DF938C0195
:1009C000EB01FC01808191810097E1F068817981E0
:1009D00061157105A9F0428153812C813D81421737
:1009E000530770F00E946F0C8C819D81F8019583F4
:1009F00084831D821C82DF91CF911F910F910895F6
:100A00000E940C0B88819981F801918380838A81EF
:100A10009B81938382838C819D81958384831982BA
:100A200018821B821A82E5CFFC0180819181009798
:100A300011F00C940C0B08950F931F93CF93DF9339
:100A4000EC0188819981009759F02A813B81261712
:100A5000370730F081E0DF91CF911F910F9108951A
:100A60008B016F5F7F4F0E94950B009759F0998320
:100A700088831B830A832C813D81232B59F7FC013A
:100A80001082E8CF80E0E7CFEF92FF920F931F93A1
:100A9000CF93DF93EC017B018A01BA010E941C0510
:100AA00028813981811114C02115310519F0C9013E
:100AB0000E940C0B198218821D821C821B821A82D2
:100AC000CE01DF91CF911F910F91FF90EF9008958C
:100AD0001D830C83B701C9010E946F0CF1CFFC018B
:100AE00011821082138212821582148250E040E03B
:100AF0006BE671E00C944405AF92BF92CF92DF9207
:100B0000EF92FF920F931F93CF93DF93EC016B0152
:100B10005A0179012417350720F48B2D5901E42E51
:100B2000F82ECE010E946F05D60114960D911C91EE
:100B3000A016B10628F5E016F10608F48701D601E3
:100B4000ED91FC911197E00FF11FF08010826D91F3
:100B50007C916A0D7B1D61157105F1F0FB0101901F
:100B60000020E9F73197AF01461B570BCE010E94D9
:100B70004405F60180819181080F191FD801FC926C
:100B8000CE01DF91CF911F910F91FF90EF90DF90F9
:100B9000CF90BF90AF90089588819981009711F010
:100BA0000E940C0B198218821D821C821B821A82E1
:100BB000E0CF85ED8093BC00809104029091050206
:100BC000A0910602B09107020796A11DB11D23E076
:100BD000B695A795979587952A95D1F72091BC0052
:100BE00024FD03C010920202089540910402509126
:100BF00005026091060270910702452B462B472B98
:100C000069F30097A105B10541F02AE22A95F1F7B1
:100C100000C00197A109B109E1CF809103020C94B2
:100C2000BB021F920F920FB60F9211242F933F9386
:100C30008F939F93AF93BF93809137029091380227
:100C4000A0913902B0913A023091320223E0230F91
:100C50002D3758F50196A11DB11D209332028093C6
:100C6000370290933802A0933902B0933A028091F0
:100C7000330290913402A0913502B0913602019670
:100C8000A11DB11D8093330290933402A0933502CD
:100C9000B0933602BF91AF919F918F913F912F9169
:100CA0000F900FBE0F901F90189526E8230F029605
:100CB000A11DB11DD2CF1F920F920FB60F9211241A
:100CC0002F933F934F935F936F937F938F939F9354
:100CD000AF93BF93EF93FF938BE392E00E94E70102
:100CE000FF91EF91BF91AF919F918F917F916F9104
:100CF0005F914F913F912F910F900FBE0F901F90DA
:100D000018951F920F920FB60F9211242F938F9365
:100D10009F93EF93FF93E0914B02F0914C028081FF
:100D2000E0915102F091520282FD1BC090818091AE
:100D300054028F5F8F7320915502821741F0E0912A
:100D40005402F0E0E55CFD4F958F80935402FF91D3
:100D5000EF919F918F912F910F900FBE0F901F9049
:100D600018958081F4CF1F920F920FB60F92112425
:100D70002F933F934F935F936F937F938F939F93A3
:100D8000AF93BF93EF93FF938091B900887F803634
:100D900009F44AC0F0F5883209F4A7C018F580318B
:100DA00009F49BC0B8F4882309F4F9C0883009F429
:100DB00094C0FF91EF91BF91AF919F918F917F91DF
:100DC0006F915F914F913F912F910F900FBE0F90B8
:100DD0001F901895883109F488C0803251F78093AC
:100DE000000214C0803409F49DC040F48033B9F38C
:100DF0008833F9F68093000285ECB0C0803509F4A1
:100E000085C0883509F496C0883499F60E94D905C2
:100E1000D0CF883909F48CC038F5883729F050F4E0
:100E2000883611F0803729F683E080930202109211
:100E3000DB0157C0883809F47BC0803919F080384D
:100E400009F0B7CF8091DB01803208F071C0E091EA
:100E5000DB0181E08E0F8093DB018091BB00F0E02D
:100E6000E554FE4F80833DC0803B39F0E0F4803A8A
:100E700009F479C0883A09F09CCF84E0809302029B
:100E80001092BA011092B901E0912C02F0912D025A
:100E900009958091B90181110FC081E08093B9015A
:100EA0001092990109C0803C09F4A6CF883C09F44E
:100EB000A3CF883B09F07DCFE091BA0181E08E0F8E
:100EC0008093BA01F0E0E756FE4F80818093BB002B
:100ED0009091BA018091B90129C08091DD01809380
:100EE000BB0085EC8093BC0064CF9091FF018091A2
:100EF000FE01981758F5E091FF0181E08E0F809375
:100F0000FF01F0E0E252FE4F8081E9CFE091FF0166
:100F100081E08E0F8093FF018091BB00F0E0E252F0
:100F2000FE4F80839091FF018091FE019817C8F2D7
:100F300085E8D8CFE091FF0181E08E0F8093FF011B
:100F40008091BB00F0E0E252FE4F8083809101026D
:100F500081115CCF81E08093DC0184EA8093BC0046
:100F60001092020226CF85EC8093BC001092020200
:100F70008091DB01803230F4E091DB01F0E0E55458
:100F8000FE4F10826091DB0170E0E0912A02F09147
:100F90002B028BEB91E009951092DB010ACF1092A6
:100FA000000234CFEBE3F2E01382128288EE93E08A
:100FB000A0E0B0E084839583A683B78322E231E08A
:100FC0003183208325EC30E03587248724EC30E022
:100FD0003787268720EC30E0318B208B21EC30E006
:100FE000338B228B22EC30E0358B248B26EC30E0E7
:100FF000378B268B118E128E138E148EE8EDF2E055
:101000001382128284839583A683B78384E391E05D
:1010100091838083EAEEF2E01382128286E491E00B
:101020009183808387E2848380E1818782E0828765
:10103000138684EE92E00C946F05CF93DF93CDB7C7
:10104000DEB768970FB6F894DEBF0FBECDBF7894B9
:1010500084B5826084BD84B5816084BD85B58260BD
:1010600085BD85B5816085BD80916E00816080936E
:101070006E001092810080918100826080938100D7
:1010800080918100816080938100809180008160E7
:10109000809380008091B10084608093B100809142
:1010A000B00081608093B00080917A00846080936A
:1010B0007A0080917A00826080937A0080917A0031
:1010C000816080937A0080917A00806880937A00B2
:1010D0001092C100E0914B02F0914C0282E08083BB
:1010E000E0914702F09148021082E0914902F091AC
:1010F0004A028FEC808310925302E0914F02F091EC
:10110000500286E08083E0914D02F0914E02808192
:1011100080618083E0914D02F0914E028081886071
:101120008083E0914D02F0914E028081806880833F
:10113000E0914D02F0914E0280818F7D808310926C
:1011400031021092300210922F0210922E020E9451
:101150009D0286E291E090932D0280932C0287E21B
:1011600091E090932B0280932A021092EF028091DB
:10117000F402823018F098E09093EF028093F2022C
:1011800062E370E080E090E00E94F4006091F5027C
:101190008AEE92E00E94620368EE73E080E090E0E5
:1011A0000E94F40060E38AEE92E00E944C040BE49B
:1011B00016E4C8010197F1F760E38AEE92E00E941D
:1011C0004C04C8010197F1F760E38AEE92E00E94B7
:1011D0004C0483E592E00197F1F760E28AEE92E039
:1011E0000E944C046091EF02606240E08AEE92E05F
:1011F0000E94650484E08093F00240E06CE08AEE97
:1012000092E00E9465040E947C0482E08093F102D7
:1012100040E066E08AEE92E00E94650440E062E011
:101220008AEE92E00E9465048BE39FE10197F1F75B
:1012300088E08093F50260E08AEE92E00E9462030B
:101240000E947C0480E0E82E80E0F82E8BE392E0A0
:101250000E94C701181619060CF0D7C08BE392E064
:101260000E9465018A9709F0D0C0CE0101960E94C4
:101270006F050E94790197FD1EC08A309105D9F053
:101280008F8318860D811E810F5F1F4FB801CE011D
:1012900001960E941C05882361F329813A818D8182
:1012A0009E81BE01695F7F4F820F931F0E946F0C6A
:1012B0001E830D83DECFBE016F5F7F4F84EE92E011
:1012C0000E94DB04CE0101960E9414051C8A1B8A31
:1012D0001E8A1D8A188E1F8A6091E4027091E502B1
:1012E0006115710541F04091E8025091E902CE018B
:1012F00043960E944405CE010D960E946F05CE01D3
:1013000007960E946F058F89988D892BE1F10B89D3
:101310001C896AE270E0C8010E945B0C009799F199
:101320009C01201B310B89010F3F100761F19801CF
:1013300050E040E0BE016D5E7F4FCE0101960E94FD
:101340007C05BE016F5F7F4FCE010D960E94DB04CE
:10135000CE0101960E9414052F89388DA8014F5F98
:101360005F4FBE016D5E7F4FCE0101960E947C05EE
:10137000BE016F5F7F4FCE0107960E94DB04CE0156
:1013800001960E9414050E947C0460E080E00E94A7
:10139000870449895A896D857E858AEE92E00E948C
:1013A000290161E080E00E9487040B851C850115FE
:1013B000110509F44CC0CF80D8846EE471E0C601F9
:1013C0000E94660C892B69F54FE050E06CE571E0F6
:1013D0008AEE92E00E94290188E091E00E94C00418
:1013E00061E08FE00E94870460E08AEE92E00E9454
:1013F000BA04CE0107960E941405CE010D960E94F4
:101400001405CE0143960E941405E114F10409F479
:101410001DCF0E94D301882309F418CF0E94000039
:1014200015CF6CE671E0C6010E94660C892B79F439
:101430004BE050E06CE671E08AEE92E00E942901F8
:1014400080E091E00E94C00461E08CE0CBCF6F812E
:101450007885A8018AEE92E00E942901CACF84EE25
:1014600092E00C9414052F923F924F925F926F92EC
:101470007F928F929F92AF92BF92CF92DF92EF9224
:10148000FF920F931F93CF93DF93CDB7DEB7CA1BA5
:10149000DB0B0FB6F894DEBF0FBECDBF09942A88D0
:1014A000398848885F846E847D848C849B84AA8478
:1014B000B984C884DF80EE80FD800C811B81AA8105
:1014C000B981CE0FD11D0FB6F894DEBF0FBECDBFD0
:1014D000ED010895EE0FFF1F0590F491E02D0994A2
:1014E0000F931F93CF93DF938230910510F482E026
:1014F00090E0E091F802F091F90230E020E0B0E0F5
:10150000A0E0309799F42115310509F44AC0281B51
:10151000390B24303105D8F58A819B81611571051D
:1015200089F1FB0193838283FE0111C040815181C7
:101530000281138148175907E0F04817590799F4B9
:10154000109761F012960C93129713961C93329693
:10155000CF01DF91CF911F910F9108950093F80271
:101560001093F902F4CF2115310551F042175307BA
:1015700038F0A901DB019A01BD01DF01F801C1CFFB
:10158000EF01F9CF9093F9028093F802CDCFFE01DD
:10159000E20FF31F819391932250310939832883FD
:1015A000D7CF2091F6023091F702232B41F42091FE
:1015B0001201309113013093F7022093F60220912B
:1015C0001001309111012115310541F42DB73EB7BD
:1015D0004091140150911501241B350BE091F60246
:1015E000F091F702E217F307A0F42E1B3F0B281728
:1015F000390778F0AC014E5F5F4F2417350748F08C
:101600004E0F5F1F5093F7024093F6028193919320
:101610009FCFF0E0E0E09CCFCF93DF930097E9F01D
:10162000FC01329713821282A091F802B091F90264
:10163000ED0130E020E01097A1F420813181820F8C
:10164000931F2091F6023091F7022817390709F00D
:1016500061C0F093F702E093F602DF91CF91089515
:10166000EA01CE17DF07E8F54A815B819E0141154B
:101670005105B1F7E901FB83EA8349915991C40F00
:10168000D51FEC17FD0761F4808191810296840FCC
:10169000951FE90199838883828193819B838A8343
:1016A000F0E0E0E012968D919C9113970097B9F5C8
:1016B0002D913C911197CD010296820F931F20919D
:1016C000F6023091F7022817390739F6309751F5AD
:1016D0001092F9021092F802B093F702A093F6026A
:1016E000BCCFD383C28340815181840F951FC8171B
:1016F000D90761F44E5F5F4F88819981480F591F68
:10170000518340838A819B81938382832115310594
:1017100009F0B0CFF093F902E093F8029ECFFD01FB
:10172000DC01C0CF13821282D7CFB0E0A0E0EBE99A
:10173000FBE00C94350A8C01009751F4CB010E9418
:10174000700A8C01C801CDB7DEB7E0E10C94510AF4
:10175000FC01E60FF71F9C0122503109E217F30745
:1017600008F49DC0D901CD91DC911197C617D70718
:1017700098F0C530D10530F3CE010497861797074E
:1017800008F3C61BD70B2297C193D1936D937C931B
:10179000CF010E940C0BD6CF5B01AC1ABD0A4C01E5
:1017A0008C0E9D1EA091F802B091F902512C412C93
:1017B000F12CE12C109731F58091F6029091F7020F
:1017C0008815990509F05CC04616570608F058C000
:1017D0008091100190911101009741F48DB79EB74F
:1017E0004091140150911501841B950BE817F907DE
:1017F00008F055C0F093F702E093F602F901718307
:101800006083A0CF8D919C91119712966C90129746
:1018100013967C901397A815B90559F56C0142E011
:10182000C40ED11CCA14DB0420F1AC014A195B09B7
:10183000DA011296159780F0628273825183408399
:10184000D9016D937C93E114F10471F0D7011396E3
:10185000FC93EE93129776CF22968C0F9D1FF90181
:1018600091838083F301EFCFF093F902E093F802C4
:1018700069CF4816590608F42C017D01D3019ACF8F
:10188000CB010E94700A7C01009749F0AE01B801BB
:101890000E94520CC8010E940C0B870153CF10E02C
:1018A00000E050CFFB01DC0102C001900D924150DD
:1018B0005040D8F70895FC018191861721F08823C4
:1018C000D9F7992708953197CF010895FB01DC01DD
:1018D0008D91019080190110D9F3990B0895FB01A6
:1018E000DC0101900D920020E1F7089510E0C8E5B9
:1018F000D0E004C0FE010E946A0A2196C935D107D2
:10190000C9F7F894FFCF00040E15110E0000001166
:101910000A040A1100000000FA02800000004000E2
:10192000140054000000000009022901560156026B
:10193000C7016501B9010000000033030603490433
:10194000DC02FF02EC02DD0200000000BA04290103
:10195000490428014D617274696E20476172726991
:1019600078004D617274696E2047617272697820E7
:0E1970002B004A757374696E204D796C6F0000
:107800000C94343C0C94513C0C94513C0C94513CE1
:107810000C94513C0C94513C0C94513C0C94513CB4
:107820000C94513C0C94513C0C94513C0C94513CA4
:107830000C94513C0C94513C0C94513C0C94513C94
:107840000C94513C0C94513C0C94513C0C94513C84
:107850000C94513C0C94513C0C94513C0C94513C74
:107860000C94513C0C94513C11241FBECFEFD8E036
:10787000DEBFCDBF11E0A0E0B1E0ECE9FFE702C060
:1078800005900D92A230B107D9F712E0A2E0B1E065
:1078900001C01D92AD30B107E1F70E942D3D0C945F
:1078A000CC3F0C94003C982F959595959595959582
:1078B000905D8F708A307CF0282F295A8091C0000B
:1078C00085FFFCCF9093C6008091C00085FFFCCF60
:1078D0002093C6000895282F205DF0CF982F809127
:1078E000C00085FFFCCF9093C6000895EF92FF92F1
:1078F0000F931F93EE24FF2487018091C00087FD22
:1079000017C00894E11CF11C011D111D81E4E8164B
:1079100082E4F8068FE0080780E0180770F3E09132
:107920000401F091050109958091C00087FFE9CF1E
:107930008091C6001F910F91FF90EF9008950E94D3
:10794000763C982F8091C00085FFFCCF9093C600B5
:1079500091362CF490330CF09053892F089597555D
:10796000892F08951F930E949F3C182F0E949F3CCF
:107970001295107F810F1F9108951F93182F882350
:1079800021F00E94763C1150E1F71F9108951F935A
:10799000182F0E94763C803249F0809103018F5F5E
:1079A000809303018530C1F01F9108958091C0003C
:1079B00085FFFCCF84E18093C6008091C00085FFE5
:1079C000FCCF1093C6008091C00085FFFCCF80E102
:1079D0008093C6001F910895E0910401F091050184
:1079E00009951F9108950E94763C803241F0809164
:1079F00003018F5F80930301853081F008958091AA
:107A0000C00085FFFCCF84E18093C6008091C00058
:107A100085FFFCCF80E18093C6000895E0910401CA
:107A2000F09105010995089540E951E08823A1F0FE
:107A30002D9A28EE33E0FA013197F1F721503040CA
:107A4000D1F72D9828EE33E0FA013197F1F7215064
:107A50003040D1F7815061F708953F924F925F9285
:107A60006F927F928F929F92AF92BF92CF92DF924E
:107A7000EF92FF920F931F93CF93DF93000080E16B
:107A80008093C4001092C50088E18093C10086E015
:107A90008093C2005098589A259A81E00E94143D24
:107AA00024E1F22E9EE1E92E85E9D82E0FE0C02ECA
:107AB00010E1B12EAA24A394B1E49B2EA6E58A2E50
:107AC000F2E57F2EE0E26E2E79E4572E63E5462E36
:107AD00050E5352E0E94763C8033B1F18133B9F107
:107AE000803409F46FC0813409F476C0823409F41B
:107AF00085C0853409F488C0803531F1823521F1A3
:107B0000813511F1853509F485C0863509F48DC0BC
:107B1000843609F496C0843709F403C1853709F423
:107B200072C1863709F466C0809103018F5F80932C
:107B30000301853079F6E0910401F0910501099582
:107B40000E94763C803351F60E94F33CC3CF0E94E2
:107B5000763C803249F78091C00085FFFCCFF092DF
:107B6000C6008091C00085FFFCCF9092C600809136
:107B7000C00085FFFCCF8092C6008091C00085FFC9
:107B8000FCCF7092C6008091C00085FFFCCF609250
:107B9000C6008091C00085FFFCCF5092C600809146
:107BA000C00085FFFCCF4092C6008091C00085FFD9
:107BB000FCCF3092C6008091C00085FFFCCFB09210
:107BC000C60088CF0E94763C863808F4BDCF0E945C
:107BD000763C0E94F33C7ECF0E94763C803809F4CC
:107BE0009CC0813809F40BC1823809F43CC1883942
:107BF00009F48FC080E00E94C73C6CCF84E10E94F2
:107C0000BD3C0E94F33C66CF85E00E94BD3C0E94D3
:107C1000F33C60CF0E94763C809306010E94763C44
:107C2000809307010E94F33C55CF0E94763C80333D
:107C300009F41DC183E00E94BD3C80E00E94C73C66
:107C400049CF0E94763C809309020E94763C809343
:107C5000080280910C028E7F80930C020E94763C79
:107C6000853409F415C18091080290910902892B8D
:107C700089F000E010E00E94763CF801E85FFE4FDA
:107C800080830F5F1F4F80910802909109020817AF
:107C9000190788F30E94763C803209F045CF809125
:107CA0000C0280FF01C16091060170910701660F0F
:107CB000771F7093070160930601A0910802B091AD
:107CC00009021097C9F0E8E0F1E09B01AD014E0F09
:107CD0005F1FF999FECF32BD21BD819180BDFA9A17
:107CE000F99A2F5F3F4FE417F50799F76A0F7B1F4B
:107CF00070930701609306018091C00085FFFCCF5F
:107D0000F092C6008091C00085FFFCCFB092C60003
:107D1000E1CE83E00E94C73CDDCE82E00E94C73CFA
:107D2000D9CE0E94763C809309020E94763C8093D3
:107D300008028091060190910701880F991F909386
:107D40000701809306010E94763C853409F4A6C0A1
:107D500080910C028E7F80930C020E94763C8032D0
:107D600009F0B8CE8091C00085FFFCCFF092C6002C
:107D7000609108027091090261157105B9F140E046
:107D800050E080910C02A82FA170B82FB27011C0E2
:107D9000BB2309F45CC0E0910601F0910701319624
:107DA000F0930701E09306014F5F5F4F46175707B7
:107DB000E8F4AA2369F3F999FECF209106013091E6
:107DC000070132BD21BDF89A90B58091C00085FFB2
:107DD000FCCF9093C6002F5F3F4F30930701209355
:107DE00006014F5F5F4F4617570718F38091C00099
:107DF00085FDE5CE8091C00085FFF8CFE0CE81E023
:107E00000E94C73C67CE0E94763C803209F08CCE3F
:107E10008091C00085FFFCCFF092C6008091C00029
:107E200085FFFCCFE092C6008091C00085FFFCCFAB
:107E3000D092C6008091C00085FFFCCFC092C600E2
:107E40008091C00085FFFCCFB092C60043CEE09188
:107E50000601F091070194918091C00085FFFCCF4D
:107E60009093C6009CCF80E10E94C73C33CE0E9415
:107E7000763C0E94763C182F0E94763C112309F430
:107E800083C0113009F484C08FE00E94C73C22CE29
:107E900080910C02816080930C02E5CE80910C02EF
:107EA000816080930C0259CF809107018823880F4D
:107EB000880B8A2180930B02809106019091070123
:107EC000880F991F90930701809306018091080203
:107ED00080FF09C080910802909109020196909359
:107EE000090280930802F894F999FECF1127E091D6
:107EF0000601F0910701C8E0D1E08091080290915D
:107F00000902103091F40091570001700130D9F34B
:107F100003E000935700E89500915700017001308D
:107F2000D9F301E100935700E89509901990009169
:107F3000570001700130D9F301E000935700E89534
:107F40001395103498F011270091570001700130FB
:107F5000D9F305E000935700E895009157000170B0
:107F60000130D9F301E100935700E895329602976A
:107F700009F0C7CF103011F00296E5CF112480919F
:107F8000C00085FFB9CEBCCE8EE10E94C73CA2CD19
:0E7F900085E90E94C73C9ECDF894FFCF80008B
:00000001FF
